:020000040000FA
:0400000000EF08F015
:020004000000FA
:0400080004EF08F009
:040018000CEF08F0F1
:041000000CEF08F0F9
:081018000F015B6B926A896A0B
:101020005C6BF19E0F0E936E856E8A685D6B946AA1
:101030008B6A5E6B956A8C6A09EC09F0026A380E5D
:10104000036EFFEC08F0060E036EFFEC08F00F0EC7
:10105000036EFFEC08F0010E036EFFEC08F035ECB8
:1010600008F0AAEC08F033EF08F0000EA96E080EA5
:10107000A86E040EA66E9EEC08F0A92A040EA86EB7
:101080009EEC08F0A92A020EA86E9EEC08F0A92A90
:10109000040EA86E9EEC08F0A92A020EA86E9EEC23
:1010A00008F0A92A040EA86E9EEC08F0A92A080EE2
:1010B000A86E9EEC08F0A92A040EA86E9EEC08F01B
:1010C000A92A080EA86E9EEC08F0A92A010EA86EA7
:1010D0009EEC08F0A92A020EA86E9EEC08F0A92A40
:1010E000040EA86E9EEC08F0A92A080EA86E9EECCD
:1010F00008F0A92A010EA86E9EEC08F0A92A020E9B
:10110000A86E9EEC08F0A92A010EA86E9EEC08F0CD
:10111000A92A020EA86E9EEC08F0A92A010EA86E5C
:101120009EEC08F0A92A080EA86E9EEC08F0A92AE9
:10113000040EA86E9EEC08F0A6941200550EA76E41
:10114000AA0EA76EA682A6EC08F01200A6B2A6EF21
:1011500008F01200026A010E036EFFEC08F0020EA6
:10116000026E4A0E036EFFEC08F0750E036EFFEC84
:1011700008F0670E036EFFEC08F0610E036EFFECE3
:1011800008F0720E036EFFEC08F0026A890E036E1F
:10119000FFEC08F0020E026E310E036EFFEC08F059
:1011A000026AC00E036EFFEC08F0020E026E500ED3
:1011B000036EFFEC08F0750E036EFFEC08F06E0E88
:1011C000036EFFEC08F0740E036EFFEC08F0610E86
:1011D000036EFFEC08F06A0E036EFFEC08F0650E7C
:1011E000036EFFEC08F0026AC90E036EFFEC08F014
:1011F000020E026E320E036EFFEC08F0120002C007
:101200008BFF8B8403C08CFF00008B9409EC09F0EA
:1012100012009568010E8B6E8B8483BE09EF09F076
:061220008B94956A120098
:00000001FF
