:020000040000FA
:0400000000EF08F015
:020004000000FA
:0400080004EF08F009
:040018000CEF08F0F1
:041000000CEF08F0F9
:081018000F015B6B926A896A0B
:101020005C6BF19E0F0E936E856E8A685D6B946AA1
:101030008B6A5E6B956A8C6A16EC09F0026A380E50
:10104000036E0CEC09F0060E036E0CEC09F00F0EAB
:10105000036E0CEC09F0010E036E0CEC09F037EC9A
:1010600008F020EC09F0ACEC08F035EF08F0000EC9
:10107000A96E080EA86E040EA66EA0EC08F0A92AB0
:10108000040EA86EA0EC08F0A92A020EA86EA0EC2F
:1010900008F0A92A040EA86EA0EC08F0A92A020EF6
:1010A000A86EA0EC08F0A92A040EA86EA0EC08F027
:1010B000A92A080EA86EA0EC08F0A92A040EA86EB2
:1010C000A0EC08F0A92A080EA86EA0EC08F0A92A46
:1010D000010EA86EA0EC08F0A92A020EA86EA0ECE2
:1010E00008F0A92A040EA86EA0EC08F0A92A080EA0
:1010F000A86EA0EC08F0A92A010EA86EA0EC08F0DA
:10110000A92A020EA86EA0EC08F0A92A010EA86E6A
:10111000A0EC08F0A92A020EA86EA0EC08F0A92AFB
:10112000010EA86EA0EC08F0A92A080EA86EA0EC8B
:1011300008F0A92A040EA86EA0EC08F0A6941200EC
:10114000550EA76EAA0EA76EA682A8EC08F0120094
:10115000A6B2A8EF08F01200026A010E036E0CECB2
:1011600009F0020E026E4A0E036E0CEC09F0750EC9
:10117000036E0CEC09F0670E036E0CEC09F0610EC7
:10118000036E0CEC09F0720E036E0CEC09F0026AAF
:10119000890E036E0CEC09F0020E026E310E036E26
:1011A0000CEC09F0026AC00E036E0CEC09F0020EA2
:1011B000026E500E036E0CEC09F0750E036E0CEC13
:1011C00009F06E0E036E0CEC09F0740E036E0CEC5D
:1011D00009F0610E036E0CEC09F06A0E036E0CEC64
:1011E00009F0650E036E0CEC09F0026AC90E036E7D
:1011F0000CEC09F0020E026E320E036E0CEC09F0DC
:10120000EF0E8A6E81A623EF09F0DF0E8A6E81A6AB
:1012100001EF0AF000EF09F002C08BFF8B8403C0DE
:101220008CFF00008B9416EC09F012009568010EFB
:101230008B6E8B8483BE16EF09F08B94956A120037
:10124000BA6ABA841200E9EC0AF081A623EF09F029
:1012500057EC0AF0BCA032EF09F00A0E016E416EA5
:1012600034EF09F0016A416A006A37EF09F0FF0EB6
:10127000406E402A01504024A96EA69EA69CA680DE
:10128000A850896EE0EC0AF0896A0050405CD8A44E
:1012900039EC09F00150416EFF0E406E402A439038
:1012A00067EC09F043A050EF09F04390015040244F
:1012B000A96EA69EA69CA680A8504262DDEF09F00A
:1012C0000050405CD8A44EEC09F0EDEC09F0EF0EB4
:1012D0008A6E81A6A6EC09F081A4A6EC09F081A291
:1012E000A6EC09F081A0A6EC09F077EF09F0DF0E7B
:1012F0008A6E81A6B0EC09F081A4B0EC09F081A25D
:10130000B0EC09F081A0B0EC09F087EF09F0BF0E56
:101310008A6E81A6BAEC09F081A4BAEC09F081A228
:10132000BAEC09F081A0BAEC09F097EF09F07F0E52
:101330008A6E81A6C4EC09F081A4C4EC09F081A2F4
:10134000C4EC09F081A0C4EC09F01200CEEC09F065
:101350004380010E426E896EE0EC0AF0896A120049
:10136000CEEC09F04380020E426E896EE0EC0AF08A
:10137000896A1200CEEC09F04380040E426E896E39
:10138000E0EC0AF0896A1200CEEC09F04380080E06
:10139000426E896EE0EC0AF0896A1200E9EC0AF00C
:1013A00081A0CEEF09F081A2CEEF09F081A4CEEFAB
:1013B00009F081A6CEEF09F01200140EA96EA69EC8
:1013C000A69CA680A8500064ACEC08F0100E896EB4
:1013D000E0EC0AF0896AF9EC09F0002A0A0E0062D2
:1013E00037EC09F0200E896EE0EC0AF0896AF9EC1E
:1013F00009F0140EA96E0050A86EA0EC08F0ACEC39
:1014000008F0E9EC0AF081A601EF0AF060EC0AF0BE
:10141000026A010E036E0CEC09F0020E026E500E11
:10142000036E0CEC09F0750E036E0CEC09F06E0EF9
:10143000036E0CEC09F0740E036E0CEC09F0610EF7
:10144000036E0CEC09F06A0E036E0CEC09F0650EED
:10145000036E0CEC09F0026A870E036E0CEC09F0C7
:10146000020E026E4D0E036E0CEC09F0610E036E5F
:101470000CEC09F0780E036E0CEC09F0026A8B0E8E
:10148000036E0CEC09F00A0E05605DEC0AF0F00E3C
:101490000514E838E8CF04F068EC0AF00F0E0514E4
:1014A000E8CF04F068EC0AF035EF08F01200026AA9
:1014B000010E036E0CEC09F01200060E0526120058
:1014C000140EA96EA69EA69CA680A850056E1200BA
:1014D000000E04648EEF0AF0010E046495EF0AF02A
:1014E000020E04649CEF0AF0030E0464A3EF0AF0FA
:1014F000040E0464AAEF0AF0050E0464B1EF0AF0CA
:10150000060E0464B8EF0AF0070E0464BFEF0AF099
:10151000080E0464C6EF0AF0CDEF0AF0020E026E68
:10152000300E036E0CEC09F01200020E026E310E4A
:10153000036E0CEC09F01200020E026E320E036E06
:101540000CEC09F01200020E026E330E036E0CEC6E
:1015500009F01200020E026E340E036E0CEC09F05C
:101560001200020E026E350E036E0CEC09F0120032
:10157000020E026E360E036E0CEC09F01200020E23
:10158000026E370E036E0CEC09F01200020E026EB2
:10159000380E036E0CEC09F01200020E026E390ECA
:1015A000036E0CEC09F01200382AD8A4D4EF0AF02C
:1015B0001200D4EC0AF0392AD8A4D9EF0AF01200AC
:1015C000FA0E3A6ED9EC0AF03A2AD8A4E2EF0AF001
:1015D0001200E30E0C6E680E0D6E0C2EEDEF0AF08D
:0815E0000D2EEDEF0AF01200E0
:00000001FF
