:020000040000FA
:0400000000EF08F015
:020004000000FA
:0400080004EF08F009
:040018000CEF08F0F1
:041000000CEF08F0F9
:081018000F015B6B926A896A0B
:101020005C6BF19E0F0E936E856E8A685D6B946AA1
:101030008B6A5E6B956A8C6A16EC09F0026A380E50
:10104000036E0CEC09F0060E036E0CEC09F00F0EAB
:10105000036E0CEC09F0010E036E0CEC09F037EC9A
:1010600008F020EC09F0ACEC08F035EF08F0000EC9
:10107000A96E080EA86E040EA66EA0EC08F0A92AB0
:10108000040EA86EA0EC08F0A92A020EA86EA0EC2F
:1010900008F0A92A040EA86EA0EC08F0A92A020EF6
:1010A000A86EA0EC08F0A92A040EA86EA0EC08F027
:1010B000A92A080EA86EA0EC08F0A92A040EA86EB2
:1010C000A0EC08F0A92A080EA86EA0EC08F0A92A46
:1010D000010EA86EA0EC08F0A92A020EA86EA0ECE2
:1010E00008F0A92A040EA86EA0EC08F0A92A080EA0
:1010F000A86EA0EC08F0A92A010EA86EA0EC08F0DA
:10110000A92A020EA86EA0EC08F0A92A010EA86E6A
:10111000A0EC08F0A92A020EA86EA0EC08F0A92AFB
:10112000010EA86EA0EC08F0A92A080EA86EA0EC8B
:1011300008F0A92A040EA86EA0EC08F0A6941200EC
:10114000550EA76EAA0EA76EA682A8EC08F0120094
:10115000A6B2A8EF08F01200026A010E036E0CECB2
:1011600009F0020E026E4A0E036E0CEC09F0750EC9
:10117000036E0CEC09F0670E036E0CEC09F0610EC7
:10118000036E0CEC09F0720E036E0CEC09F0026AAF
:10119000890E036E0CEC09F0020E026E310E036E26
:1011A0000CEC09F0026AC00E036E0CEC09F0020EA2
:1011B000026E500E036E0CEC09F0750E036E0CEC13
:1011C00009F06E0E036E0CEC09F0740E036E0CEC5D
:1011D00009F0610E036E0CEC09F06A0E036E0CEC64
:1011E00009F0650E036E0CEC09F0026AC90E036E7D
:1011F0000CEC09F0020E026E320E036E0CEC09F0DC
:10120000EF0E8A6E81A623EF09F0DF0E81A6E2EFD2
:1012100009F000EF09F0120002C08BFF8B8403C0BD
:101220008CFF00008B9416EC09F012009568010EFB
:101230008B6E8B8483BE16EF09F08B94956A120037
:10124000BA6ABA841200BFEC0AF081A623EF09F053
:10125000BC50E8A031EF09F00A0E016E416E33EF89
:1012600009F0016A416A006A36EF09F0FF0E406E2C
:10127000402A01504024A96EA69EA69CA680A85094
:10128000896EB6EC0AF0896A0050405CD8A438EC4C
:1012900009F00150416EFF0E406E402A439069EC08
:1012A00009F043A04FEF09F0B6EC0AF04390426E0C
:1012B00001504024A96EA69EA69CA680A85042621A
:1012C000C4EF09F00050405CD8A44DEC09F0D1EC1B
:1012D00009F0EF0E8A6E81A6A8EC09F081A4A8ECB3
:1012E00009F081A2A8EC09F081A0A8EC09F079EF3F
:1012F00009F0DF0E8A6E81A6AFEC09F081A4AFEC95
:1013000009F081A2AFEC09F081A0AFEC09F089EF00
:1013100009F0BF0E8A6E81A6B6EC09F081A4B6EC86
:1013200009F081A2B6EC09F081A0B6EC09F099EFC2
:1013300009F07F0E8A6E81A6BDEC09F081A4BDEC98
:1013400009F081A2BDEC09F081A0BDEC09F012000A
:101350004380010E896EB6EC0AF0896A1200438060
:10136000020E896EB6EC0AF0896A12004380040E00
:10137000896EB6EC0AF0896A12004380080E896E05
:10138000B6EC0AF0896A1200140EA96EA69EA69CFD
:10139000A680A8500064ACEC08F0100E896EDAEC60
:1013A00009F0002A0A0E006236EC09F0200E896E60
:1013B000DAEC09F0140EA96E0050A86EA0EC08F04B
:1013C000ACEC08F036EC0AF0026A010E036E0CEC8D
:1013D00009F0020E026E500E036E0CEC09F0750E51
:1013E000036E0CEC09F06E0E036E0CEC09F0740E3B
:1013F000036E0CEC09F0610E036E0CEC09F06A0E42
:10140000036E0CEC09F0650E036E0CEC09F0026A39
:10141000870E036E0CEC09F0020E026E4D0E036E89
:101420000CEC09F0610E036E0CEC09F0780E036E03
:101430000CEC09F0026A8B0E036E0CEC09F00A0E3C
:10144000056033EC0AF0F00E0514E838E8CF04F03C
:101450003EEC0AF00F0E0514E8CF04F03EEC0AF063
:1014600035EF08F01200060E05261200140EA96EC4
:10147000A69EA69CA680A850056E1200000E0464CD
:1014800064EF0AF0010E04646BEF0AF0020E0464CC
:1014900072EF0AF0030E046479EF0AF0040E04649C
:1014A00080EF0AF0050E046487EF0AF0060E04646C
:1014B0008EEF0AF0070E046495EF0AF0080E04643C
:1014C0009CEF0AF0A3EF0AF0020E026E300E036EDC
:1014D0000CEC09F01200020E026E310E036E0CECE1
:1014E00009F01200020E026E320E036E0CEC09F0CF
:1014F0001200020E026E330E036E0CEC09F01200A5
:10150000020E026E340E036E0CEC09F01200020E95
:10151000026E350E036E0CEC09F01200020E026E24
:10152000360E036E0CEC09F01200020E026E370E3E
:10153000036E0CEC09F01200020E026E380E036E00
:101540000CEC09F01200020E026E390E036E0CEC68
:1015500009F01200382AD8A4AAEF0AF01200AAEC67
:101560000AF0392AD8A4AFEF0AF01200FA0E3A6E48
:10157000AFEC0AF03A2AD8A4B8EF0AF01200E30E52
:101580000C6E680E0D6E0C2EC3EF0AF00D2EC3EF1D
:041590000AF012004B
:00000001FF
