:020000040000FA
:0400000000EF08F015
:020004000000FA
:0400080004EF08F009
:040018000CEF08F0F1
:041000000CEF08F0F9
:081018000F015B6B926A896A0B
:101020005C6BF19E0F0E936E856E8A685D6B946AA1
:101030008B6A5E6B956A8C6A22EC08F0A1EC08F072
:10104000A1EC08F0000EA96E080EA86E040EA66EA4
:10105000A6829DEC08F0A928040EA86EA6829DEC3D
:1010600008F0A928020EA86EA6829DEC08F0A92817
:10107000040EA86EA6829DEC08F0A928020EA86EA8
:10108000A6829DEC08F0A928040EA86EA6829DEC0D
:1010900008F0A928080EA86EA6829DEC08F0A928E1
:1010A000040EA86EA6829DEC08F0A928080EA86E72
:1010B000A6829DEC08F0A928010EA86EA6829DECE0
:1010C00008F0A928020EA86EA6829DEC08F0A928B7
:1010D000040EA86EA6829DEC08F0A928080EA86E42
:1010E000A6829DEC08F0A928010EA86EA6829DECB0
:1010F00008F0A928020EA86EA6829DEC08F0A92887
:10110000010EA86EA6829DEC08F0A928020EA86E1A
:10111000A6829DEC08F0A928010EA86EA6829DEC7F
:1011200008F0A928080EA86EA6829DEC08F0A92850
:10113000040EA6829DEC08F0A694A6B29DEF08F0DE
:0211400012009B
:00000001FF
