:020000040000FA
:0400000000EF08F015
:020004000000FA
:0400080004EF08F009
:040018000CEF08F0F1
:041000000CEF08F0F9
:081018000F015B6B926A896A0B
:101020005C6BF19E0F0E936E856E8A685D6B946AA1
:101030008B6A5E6B956A8C6A1AEC09F0026A380E4C
:10104000036E10EC09F0060E036E10EC09F00F0EA3
:10105000036E10EC09F0010E036E10EC09F037EC92
:1010600008F024EC09F0B0EC08F035EF08F0000EC1
:10107000A96E080EA86E040EA66EA4EC08F0A92AAC
:10108000040EA86EA4EC08F0A92A020EA86EA4EC27
:1010900008F0A92A040EA86EA4EC08F0A92A020EF2
:1010A000A86EA4EC08F0A92A040EA86EA4EC08F01F
:1010B000A92A080EA86EA4EC08F0A92A040EA86EAE
:1010C000A4EC08F0A92A080EA86EA4EC08F0A92A3E
:1010D000010EA86EA4EC08F0A92A020EA86EA4ECDA
:1010E00008F0A92A040EA86EA4EC08F0A92A080E9C
:1010F000A86EA4EC08F0A92A010EA86EA4EC08F0D2
:10110000A92A020EA86EA4EC08F0A92A010EA86E66
:10111000A4EC08F0A92A020EA86EA4EC08F0A92AF3
:10112000010EA86EA4EC08F0A92A080EA86EA4EC83
:1011300008F0A92A040EA86EA4EC08F0A92AA86A4F
:10114000A4EC08F0A6941200550EA76EAA0EA76E86
:10115000A682ACEC08F01200A6B2ACEF08F01200C8
:10116000026A010E036E10EC09F0020E026E4A0EC6
:10117000036E10EC09F0750E036E10EC09F0670EAB
:10118000036E10EC09F0610E036E10EC09F0720EA4
:10119000036E10EC09F0026A890E036E10EC09F080
:1011A000020E026E310E036E10EC09F0026AC00EE0
:1011B000036E10EC09F0020E026E500E036E10EC7E
:1011C00009F0750E036E10EC09F06E0E036E10EC54
:1011D00009F0740E036E10EC09F0610E036E10EC52
:1011E00009F06A0E036E10EC09F0650E036E10EC48
:1011F00009F0026AC90E036E10EC09F0020E026ECD
:10120000320E036E10EC09F0EF0E8A6E81A627EF06
:1012100009F0DF0E8A6E81A608EF0AF004EF09F0EC
:1012200002C08BFF8B8403C08CFF00008B941AECF0
:1012300009F012009568010E8B6E8B8483BE1AEF45
:1012400009F08B94956A1200BA6ABA841200F0EC25
:101250000AF081A627EF09F05EEC0AF0BCA036EF99
:1012600009F00A0E016E416E38EF09F0016A416A19
:10127000006A3BEF09F0FF0E406E402A0150402407
:10128000A96EA69EA69CA680A850896EE7EC0AF0DF
:10129000896A0050405CD8A43DEC09F00150416ED1
:1012A000FF0E406E402A43906BEC09F043A054EFD0
:1012B00009F0439001504024A96EA69EA69CA680EA
:1012C000A8504262E1EF09F00050405CD8A452EC13
:1012D00009F0F1EC09F0EF0E8A6E81A6AAEC09F094
:1012E00081A4AAEC09F081A2AAEC09F081A0AAECE1
:1012F00009F07BEF09F0DF0E8A6E81A6B4EC09F0ED
:1013000081A4B4EC09F081A2B4EC09F081A0B4ECA2
:1013100009F08BEF09F0BF0E8A6E81A6BEEC09F0D2
:1013200081A4BEEC09F081A2BEEC09F081A0BEEC64
:1013300009F09BEF09F07F0E8A6E81A6C8EC09F0D8
:1013400081A4C8EC09F081A2C8EC09F081A0C8EC26
:1013500009F01200D2EC09F04380010E426E896E52
:10136000E7EC0AF0896A1200D2EC09F04380020E21
:10137000426E896EE7EC0AF0896A1200D2EC09F03D
:101380004380040E426E896EE7EC0AF0896A12000F
:10139000D2EC09F04380080E426E896EE7EC0AF049
:1013A000896A1200F0EC0AF081A0D2EF09F081A264
:1013B000D2EF09F081A4D2EF09F081A6D2EF09F0B3
:1013C0001200100E896EE7EC0AF0896A140EA96EFD
:1013D000A69EA69CA680A8500064B0EC08F0FDEC88
:1013E00009F0200E896EE7EC0AF0896A002A0A0EDD
:1013F00000623BEC09F0FDEC09F0140EA96E005000
:10140000A86E040EA66EA4EC08F0A694B0EC08F04A
:10141000F0EC0AF081A608EF0AF067EC0AF0026A25
:10142000010E036E10EC09F0020E026E500E036EF8
:1014300010EC09F0750E036E10EC09F06E0E036EE1
:1014400010EC09F0740E036E10EC09F0610E036EDF
:1014500010EC09F06A0E036E10EC09F0650E036ED5
:1014600010EC09F0026A870E036E10EC09F0020E10
:10147000026E4D0E036E10EC09F0610E036E10EC5F
:1014800009F0780E036E10EC09F0026A8B0E036E01
:1014900010EC09F00A0E056064EC0AF0F00E051479
:1014A000E838E8CF04F06FEC0AF00F0E0514E8CF2F
:1014B00004F06FEC0AF035EF08F01200026A010E3A
:1014C000036E10EC09F01200060E05261200140E31
:1014D000A96EA69EA69CA680A850056E1200000EBE
:1014E000046495EF0AF0010E04649CEF0AF0020E0A
:1014F0000464A3EF0AF0030E0464AAEF0AF0040EDA
:101500000464B1EF0AF0050E0464B8EF0AF0060EA9
:101510000464BFEF0AF0070E0464C6EF0AF0080E79
:101520000464CDEF0AF0D4EF0AF0020E026E300E22
:10153000036E10EC09F01200020E026E310E036E03
:1015400010EC09F01200020E026E320E036E10EC67
:1015500009F01200020E026E330E036E10EC09F059
:101560001200020E026E340E036E10EC09F012002F
:10157000020E026E350E036E10EC09F01200020E20
:10158000026E360E036E10EC09F01200020E026EAF
:10159000370E036E10EC09F01200020E026E380EC8
:1015A000036E10EC09F01200020E026E390E036E8B
:1015B00010EC09F01200382AD8A4DBEF0AF0120070
:1015C000DBEC0AF0392AD8A4E0EF0AF01200FA0E98
:1015D0003A6EE0EC0AF03A2AD8A4E9EF0AF01200D9
:1015E000E30E0C6E680E0D6E0C2EF4EF0AF00D2E4D
:0615F000F4EF0AF0120006
:00000001FF
