:020000040000FA
:0400000000EF08F015
:020004000000FA
:0400080004EF08F009
:040018000CEF08F0F1
:041000000CEF08F0F9
:081018000F015B6B926A896A0B
:101020005C6BF19E0F0E936E856E8A685D6B946AA1
:101030008B6A5E6B956A8C6A09EC09F0026A380E5D
:10104000036EFFEC08F0060E036EFFEC08F00F0EC7
:10105000036EFFEC08F0010E036EFFEC08F035ECB8
:1010600008F0AAEC08F033EF08F0000EA96E080EA5
:10107000A86E040EA66E9EEC08F0A92A040EA86EB7
:101080009EEC08F0A92A020EA86E9EEC08F0A92A90
:10109000040EA86E9EEC08F0A92A020EA86E9EEC23
:1010A00008F0A92A040EA86E9EEC08F0A92A080EE2
:1010B000A86E9EEC08F0A92A040EA86E9EEC08F01B
:1010C000A92A080EA86E9EEC08F0A92A010EA86EA7
:1010D0009EEC08F0A92A020EA86E9EEC08F0A92A40
:1010E000040EA86E9EEC08F0A92A080EA86E9EECCD
:1010F00008F0A92A010EA86E9EEC08F0A92A020E9B
:10110000A86E9EEC08F0A92A010EA86E9EEC08F0CD
:10111000A92A020EA86E9EEC08F0A92A010EA86E5C
:101120009EEC08F0A92A080EA86E9EEC08F0A92AE9
:10113000040EA86E9EEC08F0A6941200550EA76E41
:10114000AA0EA76EA682A6EC08F01200A6B2A6EF21
:1011500008F01200026A010E036EFFEC08F0020EA6
:10116000026E4A0E036EFFEC08F0750E036EFFEC84
:1011700008F0670E036EFFEC08F0610E036EFFECE3
:1011800008F0720E036EFFEC08F0026A890E036E1F
:10119000FFEC08F0020E026E310E036EFFEC08F059
:1011A000026AC00E036EFFEC08F0020E026E500ED3
:1011B000036EFFEC08F0750E036EFFEC08F06E0E88
:1011C000036EFFEC08F0740E036EFFEC08F0610E86
:1011D000036EFFEC08F06A0E036EFFEC08F0650E7C
:1011E000036EFFEC08F0026AC90E036EFFEC08F014
:1011F000020E026E320E036EFFEC08F0120002C007
:101200008BFF8B8403C08CFF00008B9409EC09F0EA
:1012100012009568010E8B6E8B8483BE09EF09F076
:101220008B94956A1200000E406E01504024A96E06
:10123000A69EA69CA680A850896E40280050405CBF
:10124000D8A415EC09F00150416E000E406E439099
:1012500043EC09F043A028EF09F082EC0AF0439038
:10126000426E01504024A96EA69EA69CA680A8505E
:10127000426292EF09F040280050405CD8A428EC6C
:1012800009F09FEC09F0EF0E8A6E81A682EC09F05E
:1012900081A482EC09F081A282EC09F081A082ECA9
:1012A00009F053EF09F0DF0E8A6E81A686EC09F093
:1012B00081A486EC09F081A286EC09F081A086EC7D
:1012C00009F063EF09F0BF0E8A6E81A68AEC09F07F
:1012D00081A48AEC09F081A28AEC09F081A08AEC51
:1012E00009F073EF09F07F0E8A6E81A68EEC09F08B
:1012F00081A48EEC09F081A28EEC09F081A08EEC25
:1013000009F012004380010E896E12004380020E24
:10131000896E12004380040E896E12004380080E0D
:10132000896E1200140EA96EA69EA69CA680A850D7
:101330000064AAEC08F0100E896EA8EC09F00028F1
:101340000A0E006213EC09F0200E896EA8EC09F079
:10135000140EA96E0050A86E9EEC08F0AAEC08F0DE
:1013600002EC0AF0026A010E036EFFEC08F0020EB6
:10137000026E500E036EFFEC08F0750E036EFFEC6C
:1013800008F06E0E036EFFEC08F0740E036EFFECB7
:1013900008F0610E036EFFEC08F06A0E036EFFECBE
:1013A00008F0650E036EFFEC08F0026A870E036E0C
:1013B000FFEC08F0020E026E4D0E036EFFEC08F01B
:1013C000610E036EFFEC08F0780E036EFFEC08F080
:1013D000026A8B0E036EFFEC08F00A0E0560FFEC4C
:1013E00009F0F00E0514E838E8CF04F00AEC0AF032
:1013F0000F0E0514E8CF04F00AEC0AF01200060EF6
:1014000005261200140EA96EA69EA69CA680A850C2
:10141000056E1200000E046430EF0AF0010E046441
:1014200037EF0AF0020E04643EEF0AF0030E046484
:1014300045EF0AF0040E04644CEF0AF0050E046454
:1014400053EF0AF0060E04645AEF0AF0070E046424
:1014500061EF0AF0080E046468EF0AF06FEF0AF01B
:10146000020E026E300E036EFFEC08F01200020E48
:10147000026E310E036EFFEC08F01200020E026ED7
:10148000320E036EFFEC08F01200020E026E330EF5
:10149000036EFFEC08F01200020E026E340E036EB3
:1014A000FFEC08F01200020E026E350E036EFFEC28
:1014B00008F01200020E026E360E036EFFEC08F00A
:1014C0001200020E026E370E036EFFEC08F01200DF
:1014D000020E026E380E036EFFEC08F01200020ED0
:1014E000026E390E036EFFEC08F01200382AD8A401
:1014F00076EF0AF0120076EC0AF0392AD8A47BEFD6
:101500000AF01200FA0E3A6E7BEC0AF03A2AD8A4DE
:0615100084EF0AF0120056
:00000001FF
