:020000040000FA
:0400000000EF08F015
:020004000000FA
:0400080004EF08F009
:040018000CEF08F0F1
:041000000CEF08F0F9
:081018000F015B6B926A896A0B
:101020005C6BF19E0F0E936E856E8A685D6B946AA1
:101030008B6A5E6B956A8C6A1BEC09F0026A380E4B
:10104000036E11EC09F0060E036E11EC09F00F0EA1
:10105000036E11EC09F0010E036E11EC09F043EC84
:1010600008F025EC09F0BCEC08F061EF0BF0EF0E96
:101070008A6E81A628EC09F0DF0E8A6E81A65FECED
:101080000AF037EF08F0000EA96E080EA86E040EE5
:10109000A66EB0EC08F0A92A040EA86EB0EC08F019
:1010A000A92A020EA86EB0EC08F0A92A040EA86EB8
:1010B000B0EC08F0A92A020EA86EB0EC08F0A92A3C
:1010C000040EA86EB0EC08F0A92A080EA86EB0ECC9
:1010D00008F0A92A040EA86EB0EC08F0A92A080EA0
:1010E000A86EB0EC08F0A92A010EA86EB0EC08F0CA
:1010F000A92A020EA86EB0EC08F0A92A040EA86E68
:10110000B0EC08F0A92A080EA86EB0EC08F0A92AE5
:10111000010EA86EB0EC08F0A92A020EA86EB0EC81
:1011200008F0A92A010EA86EB0EC08F0A92A020E58
:10113000A86EB0EC08F0A92A010EA86EB0EC08F079
:10114000A92A080EA86EB0EC08F0A92A040EA86E11
:10115000B0EC08F0A92AA86AB0EC08F0A694120036
:10116000550EA76EAA0EA76EA682B8EC08F0120064
:10117000A6B2B8EF08F01200026A010E036E11EC7D
:1011800009F0020E026E4A0E036E11EC09F0750EA4
:10119000036E11EC09F0670E036E11EC09F0610E9D
:1011A000036E11EC09F0720E036E11EC09F0026A85
:1011B000890E036E11EC09F0020E026E310E036E01
:1011C00011EC09F0026AC00E036E11EC09F0020E78
:1011D000026E500E036E11EC09F0750E036E11ECE9
:1011E00009F06E0E036E11EC09F0740E036E11EC33
:1011F00009F0610E036E11EC09F06A0E036E11EC3A
:1012000009F0650E036E11EC09F0026AC90E036E57
:1012100011EC09F0020E026E320E036E11EC09F0B1
:10122000120002C08BFF8B8403C08CFF00008B94E4
:101230001BEC09F012009568010E8B6E8B8483BE47
:101240001BEF09F08B94956A1200BA6ABA841200F7
:1012500056EC0BF081A628EF09F0BCA035EF09F0A1
:101260000A0E016EA96E37EF09F0016AA96A006AD9
:10127000B6EC0AF0C0EC0AF042EC09F051EC09F0CF
:101280003AEF09F0DFEC09F001500024A9644CEFBB
:1012900009F00150A96E1200A92ADFEC09F044EF11
:1012A00009F0E8EC09F0A69EA69CA680A850426230
:1012B0006FEF09F0A92A01500024A96251EF09F04B
:1012C00062EF09F0200E896E4DEC0BF0896A002A5E
:1012D0000A0E0062120055EC0AF081EC09F0100EC3
:1012E000896E4DEC0BF0896A140EA96EA69EA69C21
:1012F000A680A8500064B6EC09F055EC0AF0B6ECF4
:1013000009F0026A010E036E11EC09F0020E026E82
:10131000460E036E11EC09F0650E036E11EC09F038
:101320006C0E036E11EC09F0690E036E11EC09F0FE
:10133000630E036E11EC09F0690E036E11EC09F0F7
:10134000640E036E11EC09F0610E036E11EC09F0EE
:10135000640E036E11EC09F0650E036E11EC09F0DA
:10136000730E036E11EC09F061EF0BF0026A010ECF
:10137000036E11EC09F0020E026E470E036E11ECC3
:1013800009F0610E036E11EC09F06D0E036E11ECA5
:1013900009F0650E036E11EC09F04F0E036E11ECAF
:1013A00009F0760E036E11EC09F0650E036E11EC78
:1013B00009F0720E036E11EC09F061EF0BF0A69EBE
:1013C000A69CA680A850896E4DEC0BF0896A12008D
:1013D000EF0E8A6E81A622EF0AF081A422EF0AF0B6
:1013E00081A222EF0AF081A022EF0AF0DF0E8A6EBE
:1013F00081A62BEF0AF081A42BEF0AF081A22BEF3C
:101400000AF081A02BEF0AF0BF0E8A6E81A634EF9E
:101410000AF081A434EF0AF081A234EF0AF081A02F
:1014200034EF0AF07F0E8A6E81A63DEF0AF081A4A8
:101430003DEF0AF081A23DEF0AF081A03DEF0AF0F6
:10144000E8EF09F046EC0AF0010E426E896E4DECB1
:101450000BF0896A120046EC0AF0020E426E896EA9
:101460004DEC0BF0896A120046EC0AF0040E426E55
:10147000896E4DEC0BF0896A120046EC0AF0080EFA
:10148000426E896E4DEC0BF0896A120056EC0BF03F
:1014900081A046EF0AF081A246EF0AF081A446EF50
:1014A0000AF081A646EF0AF01200140EA96E005051
:1014B000A86E040EA66EB0EC08F0A694120056ECCE
:1014C0000BF081A65FEF0AF0CDEC0AF0026A010E84
:1014D000036E11EC09F097EC0AF0026A870E036EB6
:1014E00011EC09F0020E026E4D0E036E11EC09F0C4
:1014F000610E036E11EC09F0780E036E11EC09F029
:10150000026A8B0E036E11EC09F00A0E0560CAEC3C
:101510000AF0F00E0514E838E8CF04F0D5EC0AF034
:101520000F0E0514E8CF04F0D5EC0AF01200020EFD
:10153000026E500E036E11EC09F0750E036E11EC85
:1015400009F06E0E036E11EC09F0740E036E11ECCF
:1015500009F0610E036E11EC09F06A0E036E11ECD6
:1015600009F0650E036E11EC09F01200026A010E1B
:10157000036E11EC09F097EC0AF0C0EC0AF01200CF
:10158000026A880E036E11EC09F000C004F0D5EC7D
:101590000AF01200060E05261200140EA96EA69E71
:1015A000A69CA680A850056E1200000E0464FBEFF6
:1015B0000AF0010E046402EF0BF0020E046409EF5E
:1015C0000BF0030E046410EF0BF0040E046417EF2D
:1015D0000BF0050E04641EEF0BF0060E046425EFFD
:1015E0000BF0070E04642CEF0BF0080E046433EFCD
:1015F0000BF03AEF0BF0020E026E300E036E11ECA0
:1016000009F01200020E026E310E036E11EC09F0A9
:101610001200020E026E320E036E11EC09F012007F
:10162000020E026E330E036E11EC09F01200020E70
:10163000026E340E036E11EC09F01200020E026EFF
:10164000350E036E11EC09F01200020E026E360E1A
:10165000036E11EC09F01200020E026E370E036EDB
:1016600011EC09F01200020E026E380E036E11EC3E
:1016700009F01200020E026E390E036E11EC09F031
:101680001200382AD8A441EF0BF0120041EC0BF005
:10169000392AD8A446EF0BF01200FA0E3A6E46EC47
:1016A0000BF03A2AD8A44FEF0BF01200E30E0C6EA9
:1016B000680E0D6E0C2E5AEF0BF00D2E5AEF0BF03C
:0616C000120061EF0BF0C7
:00000001FF
