:020000040000FA
:0400000000EF08F015
:020004000000FA
:0400080004EF08F009
:040018000CEF08F0F1
:041000000CEF08F0F9
:081018000F015B6B926A896A0B
:101020005C6BF19E0F0E936E856E8A685D6B946AA1
:101030008B6A5E6B956A8C6A22EC08F096EC08F07D
:1010400096EC08F0000EA96E080EA86E040EA66EAF
:101050008AEC08F0A92A040EA86E8AEC08F0A92AE6
:10106000020EA86E8AEC08F0A92A040EA86E8AEC7B
:1010700008F0A92A020EA86E8AEC08F0A92A040E2C
:10108000A86E8AEC08F0A92A080EA86E8AEC08F06F
:10109000A92A040EA86E8AEC08F0A92A080EA86EE8
:1010A0008AEC08F0A92A010EA86E8AEC08F0A92A99
:1010B000020EA86E8AEC08F0A92A040EA86E8AEC2B
:1010C00008F0A92A080EA86E8AEC08F0A92A010ED9
:1010D000A86E8AEC08F0A92A020EA86E8AEC08F025
:1010E000A92A010EA86E8AEC08F0A92A020EA86EA1
:1010F0008AEC08F0A92A010EA86E8AEC08F0A92A49
:10110000080EA86E8AEC08F0A92A040EA86E8AECD4
:1011100008F0A694550EA76EAA0EA76EA68292ECB2
:0C11200008F01200A6B292EF08F01200D6
:00000001FF
